:020000023000CC
:10AC0000807F002091DC0300D1DC0300D3DC030053
:10AC10000000000000000000000000000000000034
:10AC2000000000000000000000000000D5DC030070
:10AC30000000000000000000D7DC0300D9DC0300A6
:10AC4000DBDC0300DBDC0300DBDC0300DBDC03001C
:10AC5000DBDC030000000000DBDC0300DBDC0300C6
:10AC6000DBDC0300DBDC0300DBDC0300DBDC0300FC
:10AC7000DBDC030031BF0300DBDC0300DBDC0300B3
:10AC8000DBDC030081B00300DBDC0300DBDC030062
:10AC900039B10300DBDC030071DF0300DBDC030000
:10ACA000DBDC0300DBDC0300000000000000000030
:10ACB0000000000000000000000000000000000094
:10ACC00010B5064C2378002B07D1054B002B02D082
:10ACD000044800E000BF0123237010BD8C2C00202D
:10ACE00000000000BCF9030008B5084B002B03D09E
:10ACF0000748084900E000BF07480368002B00D15F
:10AD000008BD064B002BFBD09847F9E70000000078
:10AD1000BCF90300902C0020702C002000000000E3
:10AD2000164B002B00D1144B9D46402292029A1ADA
:10AD3000924600218B460F461348144A121A00F01F
:10AD400067F80F4B002B00D098470E4B002B00D01C
:10AD500098470020002104000D000D48002802D073
:10AD60000C4800E000BF00F02DF82000290002F0A0
:10AD70007FF900F011F8C04600000800807F002035
:10AD800000000000000000008C2C0020A8380020EB
:10AD90000000000000000000084B10B5041C002B50
:10ADA00002D0002100E000BF054B1868836A002B29
:10ADB00000D09847201C00F033F8C0460000000087
:10ADC00028F603000E4B70B500251E1C0D4CE41A2E
:10ADD000A410A54204D0AB00F35898470135F8E71A
:10ADE00004F014FC084B00251E1C084CE41AA410A7
:10ADF000A54204D0AB00F35898470135F8E770BD81
:10AE0000682C0020682C0020682C00206C2C00206E
:10AE1000031C8218934202D019700133FAE770477D
:10AE2000FEE7C04610B503240723144010D1094B98
:10AE30001A604B1CDB009BB2D218074B1A60074B01
:10AE40001C70074B1C70074B1880074B1980231C84
:10AE5000181C10BDA82C0020AC2C0020B32C002006
:10AE6000B22C0020B02C0020B42C0020F0B5284BD0
:10AE700087B002921A8801900E1C039309208A421F
:10AE800044D3002404ABDD1D281C2C7000F0C6FB4D
:10AE9000204B214A1B782149DBB29C461378098854
:10AEA000DBB2201C8B4201D20133D8B21C4F3C1CB8
:10AEB000604509D0147813780022DBB28B4201D2AE
:10AEC0000133DAB2144B1A70287800F0C5FB042065
:10AED000BC421BD0134F029A3B68E5005B191A6015
:10AEE000019A002A10D0002E0ED0039B111C188846
:10AEF0000D4B44431868321C001904F076FB3B6884
:10AF000000205D19AE8001E00020988007B0F0BD00
:10AF1000B02C0020B22C0020B32C0020B42C002038
:10AF2000FFFF0000A82C0020AC2C002010B5104C16
:10AF3000104A237812789A4219D020780E4AC0B26B
:10AF40001268C300D2180D4B91881B8858430C4BD4
:10AF50001B681818136898470A4A23781188DBB2CF
:10AF60000022994201D90133DAB22270DFE710BD25
:10AF7000B22C0020B32C0020A82C0020B02C0020E4
:10AF8000AC2C0020B42C002030B50A494C788A78CB
:10AF9000631CDBB2D21A551EAA410D7852421340EF
:10AFA00000229D4204D00370182363434868C218EE
:10AFB000101C30BDC42C0020084B09491A682F23EF
:10AFC000C046C046C046C046C046C046C046C04651
:10AFD0008A4200D0C046013BF2D17047642C002069
:10AFE0000024F400802238B50B4B9202DA678023EC
:10AFF000D2220125094C5B029200A350403AA35093
:10B000006560FFF7D9FFA5600024054B1C60FFF7C2
:10B01000D3FF044B1C7038BD04E100E00010014078
:10B02000B82C0020D82C0020F0B5002785B002AB4A
:10B03000DD1D0090281C01912F7000F0EFFA02AB8B
:10B040009E1D301CFFF7A0FF0424B84208D06B46B9
:10B050003C1C1B790370009B32784360064B5A708E
:10B06000287800F0F9FA002C03D18022034B520318
:10B070005A60201C05B0F0BDC42C0020FCE100E0AB
:10B0800070B50024224B5C649C64DC641C655C60CD
:10B090009C60204B1B68A34239D01F491F4A8A5825
:10B0A0001F490D68551B2D022D0A1A6895421AD3A7
:10B0B000AD1AA4181A7CDE69002A10D000221A7476
:10B0C000184A1268002A07D05869996990470028E1
:10B0D00005D000F0D7FA02E05A6998699047002E2F
:10B0E00001D0331CE1E7104B104A197813788B42DA
:10B0F00005D10133DBB2022B00D10023137013788A
:10B100000B4A9B009C5080220A4B52035A6070BD30
:10B11000FC100140BC2C0020001001400405000080
:10B12000B82C0020C02C0020CD2C0020CC2C0020DE
:10B13000D02C0020FCE100E0F0B5B849B84A0B681B
:10B14000B84889B0019300781378984210D0013341
:10B15000DBB2022B00D1002313701378B24A9B009C
:10B160009858019B0122C3181B021B0A0B6001E0C7
:10B170000020021CAD4CAE4B2468197803945C7817
:10B1800006945C6804949B780593A44B1E68A94BB5
:10B190001B780293039B069CA14224D018244C43A5
:10B1A000049F01313C19059FC9B2CF1B7D1EAF41E1
:10B1B0007F4239402778022F02D0032FEBD10CE0D9
:10B1C0009C461F1C64686546002DE4D0A44500D150
:10B1D0000EE16746FD69AC46F5E7002BDBD00024A5
:10B1E0001C74DB69F9E76C469249247A8F4D0C7028
:10B1F0008A4C2B602660002A05D103995B1A591EE0
:10B200008B41DBB221E00022161C002B1AD01968FA
:10B21000884204D2081A2B601860012315E0401AF6
:10B2200076180021DF681960D9698C46002F07D095
:10B23000DA611A1C01999F6071180902090A5960A4
:10B240006346E2E779490B60013378490968019167
:10B2500021680391764948780C78079048680490F3
:10B26000897801980591734909780691002A02D0DE
:10B27000111CD26922E007998C4260D018256543E1
:10B28000049901344D190599E4B2611A4E1EB14179
:10B290002F7849420C40061C6968012F4DD10F7C64
:10B2A000002F4AD1AE684E60EE688E602E69CE6087
:10B2B0006D698D61069D002D00D04A604D68039E2A
:10B2C0000295AE1B5C4D3602360A8F68AE4202D83C
:10B2D000F6190E600BE0039D029EAD1B2D022D0A98
:10B2E000AF4202D97F1B0F6001E000250D600025F1
:10B2F00001264D600E748D60CD610E1CA8421CD0DD
:10B300000E680568AE4204D8AE1B0660C8610E1C0C
:10B3100013E08446051C2F68BE4206D9F61BEF6970
:10B32000AC46002F05D03D1CF5E7BF1B2F602F1C3E
:10B3300065460E60061CCF61E961301C96E73C4A09
:10B3400014703A4A1060019A904201D1002B4AD001
:10B35000002846D00368394A0193394C2F4BA55831
:10B360001B68384E0293EB1A1B021B0A033303932C
:10B3700033780492002B12D18023C13A5B02FF3A4A
:10B38000A350403AA350C021802201272E4B9202A5
:10B3900049005A501A602760FFF70EFE3770039B72
:10B3A000019A934200D2131CA821029AC9009B184B
:10B3B0001B021B0A6350049A2148A258521B120216
:10B3C000120A5D1B2D0203322D0AAA420BD91B4B18
:10B3D000C3584350FFF7F0FD80221C4B92025A6085
:10B3E00001E0FFF7FFFD0022124B1A7009B0F0BD1B
:10B3F000A74207D1DB69002B04D10125104EB560AF
:10B400001E1C02952568E469AC46FC61002C00D145
:10B41000C1E6256865442560BDE6C046B82C00201D
:10B42000CD2C0020CC2C0020D02C0020BC2C0020C7
:10B43000C42C0020CE2C0020FEFF7F00040500005D
:10B4400000100140D82C002000E100E0FCE100E009
:10B45000F7B5032401900E1C151C1F1C1440072077
:10B46000002C32D1002A30D0FFF7BCFD174B8021D1
:10B47000C022C5201F60164B49035D60FF251C706C
:10B480005C709E70134B52001C60134B80001C704C
:10B49000124B1C70124B99501A58AA433F3D2A4335
:10B4A0001A50A122196001980E49D2008850C42078
:10B4B00080001D580C4A2A40C0252D022A431A50EC
:10B4C000201C0A4BCA580A4B1A60FEBDC02C002033
:10B4D000C42C0020BC2C0020CD2C0020CC2C002023
:10B4E00000E100E000100140FF00FFFF0405000044
:10B4F000B82C002010B50A4B5C680823002C0CD037
:10B50000013B002A09D0002807D000680133047CE1
:10B51000002C02D1231C41744261181C10BDC0468E
:10B52000C42C0020F0B5224B87B05D68009308243E
:10B53000002D39D0002837D0013C042934D9436983
:10B540000134002B30D00023447C1F1C012C00D17F
:10B550000F1C039204AAD51D0190281C02912B7088
:10B5600000F05CF804AB9E1D301CFFF70DFD0424B9
:10B57000002810D0012300240370019B0D4A436072
:10B580000D4BD358009A8360029B0761C360039BF5
:10B59000436133785370287800F05EF8002C03D1B3
:10B5A0008022064B52035A60201C07B0F0BDC046F3
:10B5B000C42C00200010014004050000FCE100E064
:10B5C00008B5094A031C52680820002A0AD0002B3B
:10B5D00008D05A69002A05D0181C002302210374E0
:10B5E000FFF722FD08BDC046C42C002010B5041C86
:10B5F000082902D0002000F045F8236860689847C9
:10B6000010BD000007B5044A00900191684608216A
:10B61000FFF72CFC0EBDC046EDB5030070B5EFF38F
:10B62000108672B6094B01225968002908D1084CCE
:10B630005A60E26F074D2A401A60E567017000E02A
:10B640000270002E00D162B670BDC04644370020A3
:10B6500004E100E0FC06FFBC10B5084A5368002B6B
:10B660000BD0002809D1EFF3108372B60449146897
:10B670000C605060002B00D162B610BD4437002032
:10B6800000E100E01FB5002101AA9060034811808D
:10B69000516000F005F805B000BDC0460140000053
:10B6A000BFF34F8F034A044BDA60BFF34F8FC0469E
:10B6B000FDE7C0460400FA0500ED00E030B5002AC1
:10B6C00002D01368DB4301E001235B42411888424A
:10B6D0000DD002785340082201255C082B4000D091
:10B6E000044B013A6340002AF6D10130EFE7D8431A
:10B6F00030BDC0462083B8EDF7B50E2400281DD01C
:10B7000000291BD0002B19D0051C03260D43023441
:10B71000354213D1334211D1141C1D1C0E1C071CC1
:10B7200003F0D2FD221C00902B1C381C311C03F0AE
:10B73000CFFD434258410B2440420440201CFEBD33
:10B7400029DF704728DF7047084B5A6E013A5A6666
:10B75000002A04D1022006490A7882430A701A6E30
:10B760000132042A00D100221A667047DC2C002026
:10B77000D92C002038B50C4C0023626E042A10D05E
:10B78000236ED318032B00D9043B013262661822C2
:10B790005343E418051C0021201CFFF739FB01234B
:10B7A0002C60181C38BDC046DC2C002030B5041CB1
:10B7B00085B00D1C684600211022FFF729FB237A73
:10B7C000012B0BD0022B10D101236A46694613705E
:10B7D000A289E3894A81D31A0B8106E000236A46D5
:10B7E000137023690293A38A938163686846019367
:10B7F0002368291C9B68984705B030BD38B51C4AA2
:10B80000516E136E151C002931D018245C43141995
:10B81000227A012A05D0022A25D1A089FFF792FFBA
:10B8200015E0211C1031A28AC988521AFF2A01DCB6
:10B8300092B201E08022520018204343EB181869AD
:10B8400008335B68890040185918FFF779FF112801
:10B8500007D10221074A13788B4349180B43137011
:10B8600005E0002803D0201C0921FFF79FFF38BD09
:10B87000DC2C0020D92C0020062108B5044A1378BE
:10B880000B4204D104390B431370FFF7B7FF08BD17
:10B89000D92C00200121034A002013780B43137098
:10B8A0007047C046D92C0020F7B51F1C1E4B161C34
:10B8B0001A780123041C0D1C1A4233D0DB1800280F
:10B8C00030D01A4A90422DD3194A90422AD20322EC
:10B8D000131C002E26D0131C002D23D0311C29430D
:10B8E000062311421ED12268013BAA421AD8BA008F
:10B8F0006168AA18914215D3013B002F12D001A80C
:10B90000FFF738FF072300280CD0019B089A1C6022
:10B910005A600122019B1A72DE601D619F82FFF74F
:10B92000ABFF0023181CFEBDD92C0020742C002076
:10B93000842C0020F7B51F1C1B4B161C1A78012302
:10B94000051C0C1C1A422CD0DB18002829D0174AE1
:10B95000904226D3164A904223D20323002920D0B6
:10B96000A2050623002A1CD12A68013B944218D361
:10B97000B2026968A218914213D3013B002E10D085
:10B9800001A8FFF7F7FE072300280AD00222019B37
:10B99000A40AA0C3019B1A729C811E82FFF76CFF50
:10B9A0000023181CFEBDC046D92C0020742C00209A
:10B9B000842C002070B5061C02202A492A4A0B78E4
:10B9C000156E141C034240D018236B43D018022E6E
:10B9D00002D0032E29D042E00021021C234B083262
:10B9E0001970037A012B02D0022B13D037E0818A21
:10B9F000C28A8B1AFF2B01DC9BB201E080235B0023
:10BA00009B1818226A439BB2A218D3828B4226D17C
:10BA1000002115E0938801339380D38801339BB2D2
:10BA2000D38012899A421AD10AE0104A137801335E
:10BA3000DBB2032B01D8137011E00023082113702F
:10BA4000FFF7B4FEFFF780FE09E00424234206D08E
:10BA5000526EA3430B70002A01D003430B70FFF713
:10BA6000CDFE70BDD92C0020DC2C0020442D002000
:10BA7000034B586E043843425841C0B27047C04629
:10BA8000DC2C002010B5041C0620042C0CD14C68C2
:10BA90000330402C08D15C68402C05D108681B6835
:10BAA00011685268FFF728FE10BDF0B5041C9DB068
:10BAB0000620052C1AD15F680330202F16D1684666
:10BAC0001C1C151C0E1C00F045F900280ED1684600
:10BAD000311C2A1C00F06AF9002807D16846216849
:10BAE000012200F08BF9002800D167601DB0F0BD85
:10BAF000036859681B68994201D3C81A03E0826839
:10BB000088180130C01A70470268806851680023A5
:10BB1000814200D24B1C1068181A43425841C0B2EF
:10BB20007047F7B56B46041CDE1D0023301C0D1C4E
:10BB30003370FFF773FD201CFFF7E6FF002803D0EA
:10BB4000237C0427002B3CD12268A768536800217E
:10BB5000BB4200D2591C5160002807D02268A76858
:10BB600010680021B84200D2411C1160E268676889
:10BB7000501E072817D803F0FFFC0407160B1616F3
:10BB8000160F2A78FA5413E02A885B00FA520FE065
:10BB90002A689B00FA500BE0DB00FF1828686968F0
:10BBA0003860796004E05343291CF81803F01DFD48
:10BBB000201CFFF79DFF236800279A68824200D26D
:10BBC00098603078FFF748FD381CFEBDF0B50024C2
:10BBD000CFB001900B781A064B781B041343CA7838
:10BBE00013438A780431120213430EAAA35004347B
:10BBF000402CEFD10FA93FAC4A6B0D1F086A2D688E
:10BC00001326171C2D18101CF741023EF041061C8C
:10BC10000B687E40920A7240AA181E1C1225181C3E
:10BC2000EE410B3DE841051CDB0875406B40D31825
:10BC3000CB630431A142DFD1019B00261B6D05932C
:10BC4000019B5B6D0693019B9B6D0793019BDB6DD5
:10BC50000893019B089A1B6E0D920993019B079A0A
:10BC60005B6E02920A93019B9B6E0B93019BDB6EB2
:10BC70000C939C460B9B04930A9B0393099B069D84
:10BC8000059C0EAAB158324A1F1CB258181C8918BC
:10BC90000B22D741053AD041021C181C7A401927C3
:10BCA000F84142408A18039F04991F4099434F402E
:10BCB000D119029F029A6F402A4027405740201C0A
:10BCC0000D22D04161448446201C0B3AD041021C15
:10BCD0006046504084461622201CD041021C60461B
:10BCE0004240BF180D9A02985218791880270D907B
:10BCF0000498043684467F00BE4207D0039802951C
:10BD00000393251C0490131C0C1CBAE70598091812
:10BD10000198016506996418079944656D18856551
:10BD200008980299844601986144C165099952189E
:10BD300002660A9A9B180B9A43669446039B0C9AD8
:10BD4000634494468366049B6344C3664FB0F0BD6E
:10BD50002CF60300031C30B50E20002B15D0002458
:10BD600000250020094A9C64DD641A65084A1864AD
:10BD70005A65084A9A65084ADA65084A1A66084AFE
:10BD80005A66084A9A66084ADA6630BD67E6096A62
:10BD900085AE67BB72F36E3C3AF54FA57F520E51EC
:10BDA0008C68059BABD9831F19CDE05B70B50E2362
:10BDB000002821D0002A01D000291DD0041C0D1C10
:10BDC0008E18B54217D0236C2A78E25401332364CD
:10BDD000402B0ED1201C211CFFF7F8FEA06CE16C5B
:10BDE00080220023920012184B41A264E3640023D6
:10BDF00023640135E5E70023181C70BD73B50E23DD
:10BE0000002800D192E0002900D18FE00D1C802194
:10BE1000161C026C041C531C8154372A05D8382B7D
:10BE200012D00022E2540133F9E73F2B03D800225D
:10BE3000E2540133F9E7201C211CFFF7C7FE201C48
:10BE400000213822FEF7E4FF216C4B0FCA00A06CE2
:10BE5000E16C12184B41A264E364009201936B46BB
:10BE6000211C1B783F310B70009B0139180A0870A8
:10BE7000180C01390870221C190E6B463C321B79D4
:10BE80001170013A1370019B013A190A1170190CD3
:10BE9000013A11701A0E231C3833211C1A70201C11
:10BEA000FFF794FE291C002E21D048070435401AC4
:10BEB000E26E0B18DB00DA400A70A26E0131DA4044
:10BEC000CA70626EDA40CA71226EDA40CA72E26DDE
:10BED000DA40CA73A26DDA40CA74626DDA40CA757C
:10BEE000226DDA40CA76A942E2D100231EE018236F
:10BEF000226DDA400A70626D0131DA40CA70A26DBB
:10BF0000DA40CA71E26DDA40CA72226EDA40CA7350
:10BF1000626EDA40CA74A26EDA40CA75E26EDA4026
:10BF2000083BCA761A1C0832E2D1DEE7181C76BD3F
:10BF3000F7B56B469C1D0023201C2370FFF76EFB9A
:10BF400001F0C6FF00281FD1114B1A68002A1BD030
:10BF5000C22201250F4E9200B2582A4214D0186016
:10BF6000A1236A460C4FDB00F358D11D381C0B701F
:10BF7000FFF7D7FD381CFFF7C7FD002804D0C22308
:10BF80009B00F550054B1D602078FFF765FBF7BD62
:10BF900000D1004000D000402CF7030004D0004046
:10BFA00002210D4A0D4B30B59950111C8022D20050
:10BFB0009C58002CFAD0A124084DE4002851985830
:10BFC0000028FCD00020054A50508022D2009A5808
:10BFD000002AFAD030BDC0460405000000E0014050
:10BFE000F0B5104C0125A4460F4B1D518024E400F0
:10BFF0001C59002CFAD00C1C92008A188025ED00E8
:10C00000944207D02668671A3E505F59002FFCD033
:10C010000434F3E7002261465A505A59002AFCD0F2
:10C02000F0BDC0460405000000E0014070DF70472D
:10C0300071DF704772DF704773DF704774DF7047DE
:10C0400076DF70477ADF70477CDF70477DDF7047AF
:10C050007FDF704786DF7047A0DF7047A2DF704741
:10C06000A5DF7047A6DF7047A8DF7047A9DF7047DC
:10C0700063DF704767DF7047030A08704B70030C7B
:10C08000000EC8708B700420704713DF70470000EB
:10C09000F0B587B06B4602AC061C0F1CDA80201C82
:10C0A000102200219D1DFEF7B3FE0123A370054B56
:10C0B000301C211C2780A560E360FFF7D3FF07B089
:10C0C000F0BDC046D62D002008B5FFF7DBFA08BD4D
:10C0D00038B50B4B041C0B4D18880823A8420DD013
:10C0E000094D2D68ED0709D56025084B9A701D7024
:10C0F000597021880322FFF7CBFF031C181C38BDA1
:10C10000602C0020FFFF0000E82D0020D62D00202D
:10C11000F7B5134B041C1F88124B08209F421DD0FB
:10C120000125114B1B682B4218D0161C602201946C
:10C130000E4C081C22705D3AA1186270A570FFF7C2
:10C140009BFF033085B26119301CFFF795FF019BFF
:10C150002A18198892B2381CFFF79AFFFEBDC04614
:10C16000602C0020FFFF0000E82D0020D62D0020CD
:10C17000F0B502230024284F8DB039681940A14240
:10C1800047D106AE1822301CFEF742FE6A460B234A
:10C1900001AD5380093B2B7001236B700533AB70ED
:10C1A000033BEB70013B2B710D20592368446B71ED
:10C1B000911CA533AB71FFF749FF041E16D16B46E6
:10C1C00059880B2906D84B1CEB710923C9182B720F
:10C1D00089B204E00C231421EB71043B2B72002282
:10C1E000C9B2281C131CFFF725FF041C002C10D11A
:10C1F0002823301C34707460347233827482FFF7E9
:10C200001BFF002804D102233A6813433B6000E07F
:10C21000041C201C0DB0F0BDE82D0020F0B5051C5D
:10C220008BB000F0FDFF2B88142B00D141E118D812
:10C23000102B23D008D8022B00D07AE1BE4B00216E
:10C240001888FFF717FF41E1112B20D0132B00D0E6
:10C250006FE10022B84B85211888131CFFF7F8FE08
:10C2600034E1512B28D003D8502B00D133E160E1C9
:10C27000522B00D124E1552B14D05AE1AA88AE4BA1
:10C280001A800223AD4A11689943116051E1FFF70A
:10C290006FFF002801D0FFF7F5F90122A64B5242AB
:10C2A0001A8046E1AB79002B00D042E1A24B13216A
:10C2B0001888FFF7C5FE09E1AB790093002B00D188
:10C2C00037E106AE301C00211022FEF7A1FD009BD5
:10C2D000022B00D02DE19A4B288999891C1C884299
:10C2E00000D026E1AA7B043A022A00D821E16A465E
:10C2F0000121127803AF3270B2790A43198A002300
:10C30000B2712A8A32816A8A03936B4672812A1C2F
:10C310001B8814323B8002AB7B60874BF26018882D
:10C320003A1CFFF79DFE00280DD102A800F0D0FFB7
:10C33000002808D1FE23FF33B3807F4B311C1888BF
:10C34000FFF792FEF5E00023B3807B4B311C188889
:10C35000FFF78AFE002800D0EBE000210C22301C01
:10C36000FEF756FD0021381C0C22FEF751FD297DF9
:10C37000481E052800D999E003F0FEF803354A2944
:10C38000985C6B8A062B03D0201C01210C3030E016
:10C390006C4B00201A886C4B391C1A806B7D7B60BB
:10C3A000EB7D1A022B7E1B041343AA7D13436A7E86
:10C3B000012512061343321CBB603D7000F0B0FA39
:10C3C000021C201C291C0C30FFF782FEB1E0032365
:10C3D000391C321C00203B7000F0A2FA021C201C09
:10C3E00004210C30F0E76B8A032B04D0201C0221BF
:10C3F0000C300322E8E7201CAB7D6A7D1B0213434F
:10C40000504A0C301380504A022113800122DBE78E
:10C410000423391C321C00203B7000F081FA021CFE
:10C42000201C03210C30012ACED17168B268FFF7BD
:10C430006FFE7EE06B8A022B03D0201C06210C309D
:10C44000D7E76B7D0625321C0020391C7B603D70D0
:10C4500000F066FA021E012AB3D1736806980093B1
:10C46000B3680193344B1F88384B9F4261D0334BE4
:10C470001B6813425DD06023354EF11CB2703370DF
:10C480007570FFF7F9FD033085B271190098FFF759
:10C49000F3FD2D18ADB271190198FFF7EDFD2D18C0
:10C4A000A189AAB2381CFFF7F3FD42E0201C0C3032
:10C4B0009FE70021A8880A1C0B1CFFF7CBFD05E0B5
:10C4C0000021A8880A1C0B1CFFF7D0FD002830D0E3
:10C4D000FFF7D8F82DE01A4CEA88A3889A4228D1B1
:10C4E00003AE00210C2206A8FEF792FC301C0021AE
:10C4F0000C22FEF78DFC022333702B1C1233736069
:10C500002B8A311C002006AAB36000F009FA0D4BFB
:10C510001E88002E0DD00C4D2B88013B9BB22B802A
:10C52000002B06D1201C07990C30089AFFF7F0FD6C
:10C530002E800BB0F0BDC046602C0020E82D0020FE
:10C54000C22D0020E62D0020C02D0020FFFF00009E
:10C55000D62D002070B51A4E04233468251C1D40CA
:10C5600029D123433360174B17491A68174BC0462C
:10C57000C046C046C046C046C046C046C0468A42C5
:10C5800000D0C046013BF2D1114B1888114B9842A4
:10C5900005D01321FFF754FD002809D00DE0A307B3
:10C5A00006D5FFF74BFD002807D106231C43346056
:10C5B00000F02EFE02E0002500E0051C281C70BDE6
:10C5C000E82D0020642C00200024F400C0D40100D9
:10C5D000602C0020FFFF00000122424B5242F0B5C8
:10C5E0001A800123051C95B002A98B703E4B0120D7
:10C5F0002A1C0B80FFF730FD041E70D13B4910222E
:10C6000004A802F0F2FFA91C04A8FFF731FD041EE4
:10C6100065D10DAF08AE211C1C22381CFEF7F8FBBB
:10C62000211C1422301CFEF7F3FB6B4604229C8075
:10C630003B78288813436A463B70AB78391C937368
:10C640000223938101220E3313436A46537103235D
:10C65000937103AB089301AB73601423321CB38155
:10C660002B1DFFF7FBFC041E39D1211C1C22381C9A
:10C67000FEF7CEFB211C1422301CFEF7C9FB6A46D4
:10C68000082194803A78A3B20A4349180A436946BC
:10C690003A70AA781B0A8A736A46012191810F2297
:10C6A00093430E3A13430E321340013213436A464A
:10C6B00053711323937103AB089301AB736017237A
:10C6C000B3812B1C28880C33391C321CFFF7C6FCA5
:10C6D000041E04D10123064A11680B431360201C79
:10C6E00015B0F0BD602C002059FEFFFF40F703009D
:10C6F000E82D002070B53B498AB001AE103104220C
:10C70000301C02F072FF01F0DDFD041E19D1364825
:10C71000FFF7BBFC041E14D1301C34494822344BB3
:10C7200001F0DCFB002801D0FEF7ACFF012003AADA
:10C73000011C01F02DFC041E03D103A801F040FCF4
:10C74000041C002C4BD12B4801F0FEFB002845D1E6
:10C7500011236A4603AD301C03946C601370FFF71D
:10C7600067FC041E06D17378311C01337370FFF728
:10C770005DFC041C002C32D11F4E301C02F03EFF29
:10C78000311C82B26846FFF75FFC00280AD10C23F7
:10C790002B80DB186B807933FF33281CAC80EB8057
:10C7A000FFF750FC041E1AD11448FFF715FF041EB2
:10C7B00015D1211C1C22281CFEF72AFB104B281C1B
:10C7C0006B608023DB01AB6003232B730D4BAB61EC
:10C7D00000F0E6FC041E02D1FFF7CAFC041C201C7A
:10C7E0000AB070BD40F7030000AC0300782D0020B4
:10C7F000EDDF03001DC2030054F70300C22D00202B
:10C80000CD0C0000C9C00300024A1368013B13604D
:10C810007047C046FC2D002030B50C4B85B00C4C49
:10C8200068469A6B0B4900F0E3FE6D46231C07CD6A
:10C8300007C30022084B201CE360084B08491A601C
:10C840005A60084A01F070F905B030BD4C3700203D
:10C85000EC2D0020A837002089C80300002E0020FE
:10C860003CF803008032002008B501F005FEBFF35C
:10C870004F8F034A034BDA60BFF34F8FC046FDE78B
:10C880000400FA0500ED00E05B689A68054B9A42E7
:10C8900006D14268836804490132013B0A604B605B
:10C8A0007047C04660F70300002E002038B5012015
:10C8B00001F04CFC031E26D1144B154C1860A36BE1
:10C8C000251C002B1ED0FFF7A7FF00281AD0236AD3
:10C8D000002B05D1A369002B02D00E4A136008E09B
:10C8E000EB6A002B0ED1AB69002B0BD06A6A094BA7
:10C8F0001A60084B084A1868002101F0FBFE01226B
:10C90000064B1A700023181C38BDC046FC2D0020B1
:10C910004C370020082E0020183200207C320020E6
:10C92000F0B5087885B0012801D0062808D10E7925
:10C93000012E03D00723022E00D05CE3BF4B1E70F4
:10C94000BE4B141C1B780D1C012B03D0022B00D1F5
:10C95000BAE092E20138052800D990E202F020FE08
:10C960000600220041001B008F02AC008B68002BE8
:10C9700022D080225200934200D996E00024B04B8E
:10C980002022B048211C1C70FEF742FAAE4B1C63FB
:10C99000AA689A6304E0AC4BDA6B62601B6CA3601C
:10C9A000012328E3A84E8A68F06BB16B83188B4291
:10C9B00004D96060336CA36003231CE330186968FA
:10C9C0005C3002F012FEF26BAB689B18F363686890
:10C9D000A9689E4AFEF772FEF36B30646360336CA5
:10C9E000DDE7994EF26BB36B01969A4201D00823B2
:10C9F00001E3934B1A780393002AD1D1FFF70CFF80
:10CA00000523012800D0F6E2914A111C74310978FF
:10CA1000171C00294BD07A321278002A00D1EAE2A2
:10CA20008C4D29686A68002900D1B8E2002A00D13B
:10CA3000B5E23B1CDB331B78002B05D03B1CDC3301
:10CA40001B78002B00D0AAE23B1C84331B78002B00
:10CA500000D1A4E23B1C88331B68332B00D09EE23C
:10CA60003B1C8C331B789C460023634500DB96E21D
:10CA700098009030061C7848754C00880290A059A8
:10CA8000029EB04200D1FCE10133EEE7A8321278F9
:10CA9000002A00D183E2AC331A682260FF236F4979
:10CAA0009B025B1A9A4200D864E20423A3E2127844
:10CAB000002A00D19FE272E2634B1A6CA260DB6B2A
:10CAC000636080235B00D6E10138052800D9D6E1F8
:10CAD00002F066FD0600490038013301D501CA01A4
:10CAE0008B68002B00D167E79A0507D0564A5C494E
:10CAF000526D09689A188A4200D05DE7802252017F
:10CB00009342D2D84E4A1278002A00D16FE74E4A9B
:10CB10005348516D0068CB18834200D967E7D36C46
:10CB200050489364AB681165536411630322037822
:10CB30004D4C01331340002203704C4B1A80236884
:10CB40004B4A013323604B4B18684B4B0818A968BC
:10CB5000C918890A01F04AFB002800D120E72368A0
:10CB6000013B236089E1384E336D5360B36C9360B1
:10CB7000334B1B78002B00D139E7802789687F0071
:10CB8000B94292D8336D726DCB189B1A726C934276
:10CB900000D911E7394A6868FEF790FDB064326D3C
:10CBA000AB689B1833656360B36CA3602F4BAA68B6
:10CBB00019888B18FF2B0FD82A4B18780302C81836
:10CBC0002F4B6968181802F010FD284BAA681B88C3
:10CBD000D318264A138075E0224B7F1A1878284B09
:10CBE0000002BFB208183A1C1818696802F0FDFC70
:10CBF0001E4B1A88BA1892B21A80AB680332DB1B3C
:10CC0000AB606B689210DF191A4B6F601868164F93
:10CC1000336B18183B6801333B60124B1978184B83
:10CC200009025918124B01F0ABFA00282AD10F4B18
:10CC3000326B1B889B1833632EE0C046622C0020A9
:10CC40007C320020843700204C3700208C370020B5
:10CC500080320020002E00200C30000000AC0300C9
:10CC6000082E0020AC330020FC2D00200C320020C8
:10CC700009C8030018320020FF0300009437002089
:10CC80000C2E00203B68013B3B60F36CB364736D7A
:10CC900033656360F36CA3600323C24AC24E10780D
:10CCA0000130184000231070AA6833809A4209D0DE
:10CCB000BE4B00021818696802F097FC3388AA6816
:10CCC000D3183380B84B1A880193002A00D167E645
:10CCD000B74D6B6D296BD31A686C5B18834200D219
:10CCE0005EE6B44BB44F1868AE4E3B68081801338B
:10CCF00031783B60AD4B0902033259189210AF4BAB
:10CD000001F03EFA002805D1019B2A6B1B889B1875
:10CD10002B6309E03B68013B3B60EB6CAB646B6DE4
:10CD20002B656360EB6CA3600322337801331340FF
:10CD300033700023019A138032E69D4B1A6D6260B6
:10CD40009B6C2CE69A4D2A6D6B6D696CD31A9942D7
:10CD500000D04CE60020AB6C68646A65EB6401F0BF
:10CD600001FB002800D01AE1954F2A6D3B689A42DA
:10CD700000D015E6904B1B68002B02D001F07AF929
:10CD8000F8E7904E0A24331CB9331B78032B19D1D2
:10CD90008D4C8E4B0520236020236360854B3A68C1
:10CDA0001968231CFEF781FE231C0124002800D0F3
:10CDB0000934311C1868BB31202202F007FC00281E
:10CDC00000D005246B69002B04D0012B00D0E6E0D5
:10CDD0007F4B00E07F4B012C2ED1321CA13210780A
:10CDE000032816D802F0C8FB02050B0E01229A6038
:10CDF00017E0A522A4369A6032686A6318E0AA2276
:10CE00009A6012E0AC229A60321CA43212686A6303
:10CE10000BE0002804D002380A24012808D804E0D6
:10CE20000A240436F26FAA6002E00436F26FEA6068
:10CE3000AA6C5A603A6802E000229A605A601A604E
:10CE4000002120226448FDF7E3FFFF21B22263485E
:10CE5000FDF7DEFF002362482B6301F083FA231CF9
:10CE6000002800D1C7E09AE0514B9A6CA2601B6D7C
:10CE7000636080235B01236092E50523BBE002230E
:10CE8000B9E0231CA1331878032800D987E002F009
:10CE900073FB02190E0E231C7C331B78002B7ED0F3
:10CEA000231DD86F019B9B68984278D30AE0231C0E
:10CEB0007C331B78002B72D0231DD86F019BDB685D
:10CEC00098426CD9231CE8331B78002B67D13F4B69
:10CED00005202B6020236B602B1CFEF7E6FD00284D
:10CEE0005DD1261C211CE936EA3132783D4802F03A
:10CEF0007CFB3D4B3B4A04201A6032783B495A6028
:10CF00002A1CFEF7BFFD0523002874D12C4BA13449
:10CF1000186020781C1C032841D82A4B1A1C02F0E8
:10CF200035FB04000A00B5FD1200B0321278B433AC
:10CF3000002A34D004E0A2321278002A2FD0A43381
:10CF40001B68236016E0A8321278002A27D01A1C2A
:10CF5000A2321278002A22D01A1CAC33A4321168F3
:10CF60001A6853182360002900D125E5002A00D152
:10CF700022E593E5391C1548BB31202202F035FB30
:10CF80002068002800D117E500210A4A01F0B2FB11
:10CF9000002800D089E501F0E5F9002828D00A230F
:10CFA00029E0C046AC3300200C3200200C2E0020BB
:10CFB0004C37002018320020FC2D002009C8030047
:10CFC000082E002080320020002E00205C3200203D
:10CFD000703700206437002084370020A8370020F5
:10CFE00069C803001C32002010320020DCF8030066
:10CFF0000123039A1370181C05B0F0BD10B5184B2F
:10D000001868184BA021A222C905D2008C586405CB
:10D0100017D58A58520414D4FA2213499200C046F4
:10D02000C046C046C046C046C046C046C04688420C
:10D0300000D0C046013AF2D1013B002BE2D10120E1
:10D040000CE00A4B00209C6D012C07D1986501F083
:10D0500089F90028F3D0FEF715FB201C10BDC0464F
:10D06000642C0020881300000024F4004C370020BA
:10D07000A023E7220C2110B50024DB05D200995033
:10D08000103A9C50054A0939995000F0B9FF044BF9
:10D09000186800F0D9FF201C10BDC046240700000E
:10D0A0000830000075DF704776DF70477ADF704721
:10D0B0007BDF704737B5174B1888174B984227D03E
:10D0C000164A174D13782C1C0133DBB21370297BE1
:10D0D000994208D31349FFF7E5FF002818D0AB6940
:10D0E000002B14D114E0002313702B7C002B08D0EC
:10D0F0003B21FFF7D9FF002803D0AB69002B00D0FC
:10D1000098476369002B03D0002201A8027098475A
:10D1100037BDC046F4330020FFFF0000B6330020C7
:10D12000B8330020F633002037B5174B174A5B8819
:10D130001188174C174D99420CD852889A4209D33E
:10D140006369002B03D0012201A8027098470023D5
:10D150002B7037BD2B78002B05D06369002BF6D0E0
:10D1600001A80022F1E70C4B1B78002B01D161686C
:10D1700000E0A16809480022FEF7D4F90028E6D0B3
:10D18000A369002BE2D1E2E7AE330020F6330020A2
:10D19000B8330020AD330020B6330020D433002054
:10D1A000144938B5021C0B1C32CA32C332CA32C30E
:10D1B0001268114C1A600022104B01681A70201C72
:10D1C000914213D0083202F010FA201CFFF76EFFD4
:10D1D00000280ED101220021094B52421A80094B2E
:10D1E000094A0A481970FEF785F902E0FFF760FF67
:10D1F000EEE738BDB8330020F6330020AD33002011
:10D20000F4330020B6330020B5D00300E4F8030067
:10D2100008B50248FEF7D4F908BDC046D433002053
:10D2200010B50388112B19D002D8102B05D043E07C
:10D23000122B39D0502B20D03EE0011C82881F4B8E
:10D2400018311A801E48082202F0CFF900221D4B27
:10D250001A701D4BDB8993422ED12BE00122174B14
:10D2600052421A800022174B18481A70FEF7A8F98C
:10D27000002821D0144B9B6912E0134CC188E2892D
:10D28000914219D1038A022B16D1123000F020F8F6
:10D2900000280FD10D48FEF793F900280CD0A369A0
:10D2A000002B09D0984707E0011C082208310448E8
:10D2B00002F09BF9FFF738FF10BDC046F4330020A1
:10D2C000AE330020B6330020B8330020D433002022
:10D2D00001230078184070470023C260016041605C
:10D2E00083608B78D21803230261CB56D218426137
:10D2F0000878431E9841C0B2704770B50024436857
:10D300001A78A24238D01A1C0C3242601A7BA24210
:10D3100004D10168C268FFF7DFFF2DE030215A78A1
:10D320001D791140302909D15E7B3140302905D16A
:10D330009A780169251C8A1A02610CE00F21141CDD
:10D340008C43202C02D15A79554304E03F218A4373
:10D35000802A00D1042530225978114202D18268F6
:10D360000132826001249A7B0169AA188A1802613D
:10D37000DB7B5BB2D2184261201C70BD70B5041C0F
:10D380000E1C456863681A78B24204D15A780F239C
:10D390001340082B07D1201CFFF7AFFF6368AB4297
:10D3A000F0D1002000E0012070BD10B54468A31842
:10D3B00043600023994205D0934203D0E05CC854F7
:10D3C0000133F9E7012010BD10B5041C01222368C8
:10D3D0009847002802D0A368013BA36010BDF0B5B8
:10D3E000836885B0002B02D10023009329E002ABB3
:10D3F000DE1D0191311C041CFFF7E6FF00900028A0
:10D40000F2D033785AB21F1C002A18DA7F22134058
:10D410001F1C0725A368002BE6D0201C311CFFF73A
:10D42000D3FF0028E0D07F2332781340AB4052B2C4
:10D430001F430735002A02DA232DEBD1D4E7019BE5
:10D440001F60009805B0F0BD0F2130B5426887B06D
:10D450005278031C114008291DD103691C68002C57
:10D4600047D000232373236862689D686846291C9F
:10D47000FFF732FF63683F220493231C0C330593AC
:10D480006B789343802B01D1231D04936846FFF7EB
:10D49000DBFFA468E3E73F21101C8843011E09D18C
:10D4A00030201040102802D15A6911700CE0920609
:10D4B0000AD506E080281CD1002118690160920677
:10D4C00017D55B69197014E00F215A685078014034
:10D4D000072904D19068196900F00DF809E09168F6
:10D4E00018691279002902D002F07FF801E0FDF7F7
:10D4F0008FFC07B030BD7FB5031C0A1C6846191CA1
:10D50000FFF7EAFE002806D06846FFF79DFF684651
:10D51000FFF7F3FEF6E707B000BD000030B5041CCE
:10D5200085B0151C002912D1114B02689A420ED009
:10D53000201C6946102D06D91022FFF7EFFF0028A6
:10D5400013D0103DF4E72A1CFFF7E8FF0DE0A368B5
:10D55000AB4201D2002008E0201C2A1C2368984717
:10D560000028F7D0A3685D1BA56005B030BDC0469C
:10D57000ABD30300F7B50F1C01A9061C151CFFF760
:10D580002EFF041E13D0019A0024511C91420ED389
:10D590003F207B788343802B09D03B79994206D882
:10D5A000301C291CFFF7BAFF019BEC54041C201C03
:10D5B000FEBDF7B50E1C01A9051C141CFFF70FFFDB
:10D5C000002813D0019A0020FF2A0FD8511C8A424C
:10D5D0000CD83F277378BB43802B07D0337999420F
:10D5E00004D82270611C281CFFF798FFFEBD0000C4
:10D5F000034B4160036000238260C3607047C046F4
:10D60000ABD30300F0B50024071C0D1C87B00394B6
:10D610000194BB68002B02D10023029320E004ABED
:10D62000DE1D381C311CFFF7CFFE02900028F3D01E
:10D630007F203678019A3040002101F0BBFF039B28
:10D6400076B20B430393019B044307330193002EEF
:10D6500003DA019B462BDCD1DEE7039B2C606B6079
:10D66000029807B0F0BD37B50D1C6946141CFFF7D2
:10D67000C9FF002821D02B79082B04D1009B0198E9
:10D680002360606011E0042B02D1009B236004E062
:10D69000022B04D1009B23809BB2002005E00020D8
:10D6A000012B0AD1009B2370DBB2009A5340019AF0
:10D6B0005040184343425841C0B23EBD37B50D1CDF
:10D6C0006946141CFFF79EFF002822D02B79082BF7
:10D6D00004D1009A019B226063601AE0009DE91763
:10D6E000042B03D125602B1C081C0CE0022B03D15A
:10D6F000AAB2228013B205E00020012B09D1EAB2C0
:10D70000227053B2D81741406B400B4358425841E6
:10D71000C0B23EBDF7B51E1C00230C1C33700B704D
:10D72000136001A9071C151CFFF759FE002806D13C
:10D73000BB68002B0BD101230020337007E0019A56
:10D74000002AF8D0D3082B60072313402370FEBDB6
:10D7500037B5052926D8041C081C01F00DFF060F5B
:10D760001323231F2B787F2B1DD901AD201C291CCF
:10D770000122FFF7D3FE0028F4D114E0201C002181
:10D78000082208E0201C01A9FFF729FE00280AD082
:10D79000201C0021019AFFF7C1FE04E0201C00219B
:10D7A0000422F8E700203EBDF7B50D1C01A9041CBA
:10D7B000FFF715FE002801D100200DE02B1C221CD4
:10D7C000C2CAC2C312681A60019BAA689A42F3D304
:10D7D000AB60A268D31AA360FEBD0000F0B5141CB4
:10D7E00052688BB05378051C9C463F2367469F4385
:10D7F00002D0402F6CD0BDE063460F2018405F4B35
:10D8000086000090F658604630230340102B0BD062
:10D8100005D8002B00D0ADE0281C111C09E0202BFE
:10D820000AD0302B42D0A5E0012362691370281C76
:10D8300061682269B0479EE06769022926D1009B92
:10D84000042B23D8281C06A9FFF7AEFF002800D11F
:10D8500090E0089B0093002B10D061683A784B79D8
:10D8600093420BD90B7906A85A4323699A18B047FB
:10D87000002804D03B7801333B70EAE70120079B86
:10D8800000936B60089B002B75D073E0137952797D
:10D890009C463B78216900209A426CD95A1C3A7008
:10D8A00062465343281CCA186168C3E7137862694B
:10D8B0001370009B072BBAD16368391C1A79206951
:10D8C000FDF7A6FA636821699868FFF714FEAEE7D2
:10D8D00027693B1D01933B68002B02D1FFF738FFFE
:10D8E00049E0022912D106A9FFF75EFF002841D0C6
:10D8F00006A86168019A3B68984700283AD0089BBF
:10D900000093002BF4D1079B6B6034E001291DD0FC
:10D91000002914D005292DD103A90422FFF7FEFD0B
:10D92000042618E0281C191C0122FFF7F7FD002827
:10D9300020D0009B311C1B785BB2002B0DDA03ABAF
:10D940005B184E1C00930B2EECD113E003A90822A8
:10D95000FFF7E4FD082600280DD0094B0896069332
:10D9600003AB0793002309933B6806A86168019AFB
:10D97000984700E000200BB0F0BDC046E8F8030077
:10D98000ABD30300F0B5002695B0041C08A806969A
:10D990000796FFF7A1FCA368002B00D193E004AB2E
:10D9A0009D1CDF1C201C291C05AA3B1CFFF7B2FE96
:10D9B000002804D13B78002B00D084E081E008A847
:10D9C0000599FFF7DBFC002857D1059BB3424ED3E6
:10D9D000099E0F23099A51780B40082B00D19FE034
:10D9E00008A8FFF78AFC099B0193B342F1D10126F5
:10D9F0007642059B0193B34239D3A36802932B78F7
:10DA000003930C9B1D68A368002D2DD0029A9A42A7
:10DA10002AD12B681F68002F05D0201C291C019AD1
:10DA2000039BB8471CE09F68019A3B78934219D149
:10DA30006A680EA8391CFFF74FFC6B683F221293EF
:10DA40002B1C0C3313937B789343802B01D12B1D1C
:10DA500012930123201C2B7303990EAAFFF7BEFE1D
:10DA600000282ED0AD68CEE7029A9A4293D104AB3B
:10DA70009978201CFFF76CFE20E0099B01935A78EF
:10DA800030231A420DD10A993F290AD81F224B0987
:10DA90000A40012191400A1C06A89B0019580A431C
:10DAA0001A50E768002F04D02A78201C059908AB8B
:10DAB000B8472978201C08AAFFF790FE002800D05C
:10DAC00069E700202EE0099B08A801930A9C5D7875
:10DAD000FFF713FC0028F6D130231D4204D1099B27
:10DAE0001B785A1E9341E418002C17D000236509B7
:10DAF00006AA9900AB4204D05258013212D1013328
:10DB0000F6E71F2020230440181B213BC340181CAC
:10DB10005358181A42424241D0B203E0012001E0BA
:10DB2000167866E715B0F0BD70B5061C0D1C141C08
:10DB3000081C111CFFF7DFFC301C291C221CFFF7FE
:10DB400021FF70BDF0B585B00C1C8F686946051CBF
:10DB5000161CFFF729FE002811D0A06800280ED05F
:10DB60003023627868461340391C321C202B02D1C6
:10DB7000FFF7DAFF01E0FFF705FF019B6B6005B0DF
:10DB8000F0BD37B50C1C6946FFF73CFD00280DD0F1
:10DB9000019B009DD9076A085B080A43ED0703D57E
:10DBA000D243DB43226000E0226063603EBD37B5B4
:10DBB0000D1C6946141CFFF7E4FF002823D02B79C5
:10DBC000082B04D1009B01982360606013E0042BB4
:10DBD00002D1009B23600DE0022B04D1009B9BB27D
:10DBE00023801BB206E00020012B0CD1009BDBB28E
:10DBF00023705BB2D817009A5340019A50400343F8
:10DC000058425841C0B23EBD37B501AD0C1C04228C
:10DC1000291CFFF783FC00280AD06B781A02AB7826
:10DC20001B0413432A781343EA7812061343236034
:10DC30003EBD08B5111CFFF7E7FF08BD13B508226C
:10DC40000C1C6946FFF76AFC00281BD06B4659780C
:10DC50009B7809021B0419436B461B7819436B46DA
:10DC6000DB781B0619436B461A795B791B02134359
:10DC70006A469279120413436A46D27921601206E9
:10DC80001343636016BD08B5111CFFF7D7FF08BD2D
:10DC900003210A4802680A430260094802680A43ED
:10DCA00002600849084A094B9B1A03DD043BC85827
:10DCB000D050FBDC00F012F8FDF732F824050040EC
:10DCC00054050040C8F90300002C00208C2C0020D3
:10DCD000FEE7FEE7FEE7FEE7FEE7FEE710B52D4BA9
:10DCE0001A78012A19D12C4A1268120715D12B4A29
:10DCF000E0241168F022081C104021420BD1284971
:10DD00000968114209D12749274A11608021274A11
:10DD10000902116001E03028F1D01A78012A0DD1F2
:10DD20001D490968090709D1F0201C49096801400B
:10DD3000402903D11A490968014223D01B68DBB28C
:10DD4000012B25D1144B1B681B0721D1134B1A68DB
:10DD5000F0231A40A02A04D1114A12681A4203D0B3
:10DD600016E0D02A14D1F7E7114B1A68012A03D123
:10DD7000C022104B1A600BE00F4A1A601A68012A81
:10DD8000FCD1F5E7C1218020C900C0054250D5E78C
:10DD900010BDC046E00F00F0E40F00F0E80F00F007
:10DDA000EC0F00F0DFFF07C004050040186C0040D6
:10DDB00000EC064014EC06407593000052DF7047FB
:10DDC00010DF704760DF704761DF704708B5FDF70F
:10DDD00067FC08BDC52310B509499B00CB585B0201
:10DDE00001D408480BE08024074BE403586800285E
:10DDF00004D01A68002022431A6000E00C6010BDB5
:10DE000000E100E00220000044370020F0B52A4B7A
:10DE100087B01B78002B4DD0284D294E2B683468D5
:10DE20005A425341DBB2019363425C41E4B2019B2D
:10DE3000002B3DD1234B1B78002B3BD105A8FFF7CE
:10DE4000BDFF052808D0002802D0FDF71BFC05E027
:10DE500005982B68984701E001230193002C23D1FA
:10DE6000184B1B78DBB20293002B23D1164B05A96C
:10DE70001B8801240B80154B1B68181C0393FFF7AC
:10DE8000A3FF071E052F09D0002803D0FDF7FAFBDA
:10DE9000029C03E00398336898473C1C019B002BCD
:10DEA000C5D0002CC3D005E0019B002B02D1BEE7FA
:10DEB000002CD5D007B0F0BDFF330020083400207F
:10DEC0000C340020FE3300200034002004340020F5
:10DED000014B1878C0B27047FF33002070B5061CA4
:10DEE0000720002921D08C071FD11048104D016058
:10DEF00010490A80104A13602C68A404E40F03D070
:10DF000080220E4B9201DA67301C0D49FFF758FF53
:10DF1000002805D0002C08D080239B012B6004E052
:10DF20000122084B1A70FFF755FF70BD0434002022
:10DF300000E100E0003400201034002004E100E0A3
:10DF4000CDDD0300FF3300200E23002802D0024B5A
:10DF500018600023181C70470C3400200E23002882
:10DF600002D0024B18600023181C704708340020B0
:10DF700008B5064B1B68002B05D09847002804D035
:10DF8000FDF780FB01E0FFF741FF08BD10340020E2
:10DF900070B5141C051C0E1C101C00211422FCF76B
:10DFA00037FF002201232261227B23809A432273C0
:10DFB00026726572002D00D0A372002070BD000093
:10DFC00007B5044B69460193019B0093FFF7FAFEE6
:10DFD000019B0EBD002C002008B5002902D00020B6
:10DFE000FDF750FBFFF712FF08BD0000002008B549
:10DFF000011C024AFCF73AFF08BDC046D9DF030006
:10E0000008B500F03BF808BD13DF7047F0B5031CFE
:10E01000186880F308885868FF2464B2EFF3058518
:10E02000002D01D1A6460047251C061C21273FBA1A
:10E03000F0B40024002500260027F0B4F92040B2F7
:10E040000047C046F0BDC04610B5041C00F03AF9C8
:10E0500000280BD10122064B5242DA67201CFFF741
:10E06000D3FF002802D1201CFFF7D0FF10BDC0460F
:10E0700004E100E008B5FCF759FF08BD002313B523
:10E08000019300F0B9F901A800F078FA002801D056
:10E0900001230193FEF7B2FF002801D00123019371
:10E0A000019C002C12D08021A123A0228900DB003A
:10E0B000D205D150FC390020FF39154A154BFDF728
:10E0C000C7F9002807D0FDF7DDFA04E000F0F8FA00
:10E0D0000028E8D011E0082014210F4AFCF7A2FE26
:10E0E000002801D0FDF7CEFA00F0B0F9041E0CD1E3
:10E0F000FEF7DCFBFCF71AFFFCE700F0E1FA002872
:10E1000003D0064B1868FFF79FFF201C16BDC046C2
:10E110006435002005B603001434002008300000E8
:10E1200038B5094A012413681D1CA543002902D1F2
:10E130000324A34301E002232B4313604368002B15
:10E1400000D0984738BDC046DC35002008B500280F
:10E150000ED0FDF79FFB002801D008200AE00648FA
:10E16000FFF7FCFE0028F8D10422044B1A6001E0FE
:10E17000024B186008BDC046B5B90300DC3500206D
:10E18000F0B589B003920422164E1C1C3368071C9C
:10E190001A408C46151E13D00A209A071FD4012559
:10E1A0002B4333606B4610489B89391C00946246B0
:10E1B000FDF77AFB002812D133682B4333600EE061
:10E1C000039AFDF70DFF201E09D06B469B8904A81A
:10E1D0000570446087608381291CA047281C09B012
:10E1E000F0BDC046DC350020742C0020F0B5214C79
:10E1F00087B02368051C0191161C5A0715D50A2003
:10E200009A0734D401273B4323606B461A489A8807
:10E21000291C331CFDF78EFB2368002802D0BB436A
:10E22000236024E01F43276021E0071C019C381C69
:10E23000FDF7B6FE8023013CDB00FF18002CF6D171
:10E24000019B301C9A02AF18002E10D0211C102206
:10E2500002A8FCF7DDFD012302AAAD0ABF0A101CCB
:10E26000137015815781211C0396B047201C07B0FD
:10E27000F0BDC046DC350020742C002018DF70474C
:10E2800030B50C1C051C85B0002110226846FCF737
:10E29000BFFDA408684601950294FFF7EFFF05B0A3
:10E2A00030BD1FB59208D4B2031C0920002C07D141
:10E2B000083800906846019102930392FFF7DEFF51
:10E2C00004B010BD1FB5002110226846FCF7A0FD68
:10E2D000022368460093FFF7D1FF05B000BD1FB5CC
:10E2E0000323019092086846009302910392FFF77E
:10E2F000C5FF05B000BD000008B5002901D1044BE1
:10E300001970044B1B68002B00D0984708BDC0460D
:10E31000E0350020E435002008B50A4B0A491A68A8
:10E320000A4BC046C046C046C046C046C046C0466E
:10E33000C0468A4200D0C046013BF2D1FCF7F6FD50
:10E3400008BDC046642C00200024F400A086010013
:10E3500008B5034858210022FDF7B0F908BDC046B2
:10E360005037002070B5051C1D4C2378002B02D0BF
:10E37000FFF7D2FFF8E7013323701A4B1D60FDF75A
:10E3800077FB021E02D0FFF7C7FFF8E7164E012108
:10E39000301CFFF72BFF0728F1D0002803D0002303
:10E3A000032023701AE0FFF7D3FFAE220F49104D70
:10E3B00008605200281C01F018F9FDF759FB0028ED
:10E3C00002D0FFF7A9FFF8E7301C291C5722094BA0
:10E3D000FFF7D6FE0728F0D00028E0D170BDC04678
:10E3E000E0350020E435002000FC03004C3700201D
:10E3F000E8350020F9E203000022114B10B5114C62
:10E400001A705D32201C1049FF3201F0EEF82368CB
:10E4100001330FD1AE22201C00215200FCF7F8FC82
:10E42000012300206360FFF79DFF002807D0FDF760
:10E4300029F904E0FFF78CFF23689842EAD110BD68
:10E44000E03500204C37002000FC0300084B70B57D
:10E4500000251E1C074CE41AE408A54206D0EB0078
:10E46000F3589847002802D10135F6E7002070BD27
:10E47000842C00208C2C002038B5094A094B0A4C0A
:10E480009B1ADB08DB0004339D18AC4205D02368DF
:10E49000984708340028F8D000E0002038BDC04676
:10E4A000842C00208C2C0020882C002008B50C2205
:10E4B0000021FCF7ADFC0022024B1A635A631A617B
:10E4C0005A6108BD4C370020F7B580221A4E520120
:10E4D000336B1A499A180192726BC7185418E41AD0
:10E4E000A40AA402A5086D18AD0AAD02002A02D044
:10E4F000002093421ED00198391C2A1CFFF7D1FE40
:10E50000002817D10198391C2A1CFFF7E8FE0028C3
:10E5100010D1019B7F195B190193A54201D8641B9F
:10E5200000E0041C736B00201B1B3363FFF71AFF12
:10E53000002CE0D1FEBDC0464C370020FF03000098
:10E54000F8B50C4B0A685B6B0E1CC418D51A0A4848
:10E55000211C2A1CFFF7C3FE071E06D1301CFFF743
:10E56000A5FF381CFFF7FEFE03E0201C291CFFF767
:10E5700087FEF8BD4C37002000AC0300F0B54B4DD2
:10E580004B4B296985B01A68071C039301290BD0EE
:10E590006B69002B08D0AB694649474E5B189B0A54
:10E5A0009B029B18009301E0444E0092B368A52B98
:10E5B00059D002D8012B05D074E0AA2B5FD0AC2B28
:10E5C00063D06FE06B690024012B6CD16B6A2F6BF9
:10E5D0000293BB180193029BDF1B80233E1CDB00D0
:10E5E0009F4200D91E1C019801210022FFF7FEFD69
:10E5F000041E58D1231C01980099321CFFF7C0FD5E
:10E60000041E50D101980099321CFFF768FE041EC9
:10E6100049D1221C00980121FFF7E8FD041E42D1D8
:10E620002B6BBF1BF3182B63FFF79CFE019B9B1901
:10E630000193009B9B190093002FCED1039B02995D
:10E6400018683A1CFDF73AF8AB6A984204D10123E6
:10E650002B62029BE861AB611748FFF727FF0020A0
:10E66000FFF780FE0FE00098FFF72EFF041E16D183
:10E67000301CFFF71BFF201CFFF774FE0EE0009814
:10E68000311CFFF75DFF041C0DE00098FFF71CFF35
:10E69000041E04D10098311CFFF752FF041C012313
:10E6A0003B6000E00024201C05B0F0BD4C3700208A
:10E6B00008300000FF03000070370020643700209E
:10E6C00010B50A4C0020236A012B0ED1181CE369F7
:10E6D000002B0AD0064B00221868A169FCF7EEFF58
:10E6E000E369C01A42424241D0B210BD4C3700200B
:10E6F00008300000F8B5194C194B2568194C1B68F7
:10E700002D19ED1A854201D2042025E0164C136024
:10E71000266A012E14D1A369144FDB199B0A9B02B0
:10E72000ED1AA84204D90029EED1266161610AE000
:10E7300000216661216111680D4DCB18136003E063
:10E740000023236163610B4D041C0021281C0C2253
:10E75000FCF75EFB00202C60F8BDC04614100010D2
:10E760000830000000F4FFFF4C370020FF030000DA
:10E770007037002064370020002A00D17047013A2A
:10E780008B5C8354F8E730B5013A52B29300002A0B
:10E7900001DA002030BDC558CC58A54205D8043B4D
:10E7A000A54204D3013A52B2F1E70120F2E7012079
:10E7B0004042EFE700000000000000000000000001
:10E7C00070B50824E31ADB0001330400002003A520
:10E7D0005B1920C940CAAD1920C4184720C940CAD6
:10E7E000754120C420C940CA754120C420C940CA0F
:10E7F000754120C420C940CA754120C420C940CAFF
:10E80000754120C420C940CA754120C420C940CAEE
:10E81000754120C4404170BD0000000000000000B0
:10E8200070B50824E31ADB000133002403A5C046B9
:10E830005B1920C940CAAD1B20C0184720C940CA77
:10E84000B54120C020C940CAB54120C020C940CA36
:10E85000B54120C020C940CAB54120C020C940CA26
:10E86000B54120C020C940CAB54120C020C940CA16
:10E87000B54120C064416042604170BDF0B5DE46E4
:10E8800057464E464546E0B5013B9B0098465B0027
:10E890009946002300240025002601B4002702E049
:10E8A000370040463F1A9A46A346AC46B646F01B90
:10E8B0001458C859030C80B2250CA4B21E006E4334
:10E8C0006343454360431C041B0C00195E412C0448
:10E8D0002D0C00196E4153465C4665461B18744169
:10E8E0000020454176460437474501DCB742DADD72
:10E8F0000098835123462C46002504364645CDDD3D
:10E900004E45CDDD835101BC3CBC90469946A246A4
:10E91000AB46F0BDF0B5DE4657464E464546E0B53F
:10E92000013A9200904652009146002200230024B2
:10E93000002501B4002602E02E004046361A924619
:10E940009B46A446AE46AF1BCB598859020C80B2F9
:10E950001C0C9BB2150065435A43444358431304AF
:10E96000120CC01855412304240CC01865415246AE
:10E970005B466446BE4203DA002712186B417C41B5
:10E98000002712186B417C4175460436AE4202DA0C
:10E99000AF1BBE42D3DD009842511A4623460024E5
:10E9A00004354545C6DD4D45C6DD425101BC3CBC84
:10E9B00090469946A246AB46F0BD002310B51C0018
:10E9C0005AB2914200DC10BD9A0084500133F7E73F
:10E9D000F7B51E0001910223F45E050021001F20FF
:10E9E0001F31CB1703405B1807215F11E31DDC17B4
:10E9F0000C40E418E410944200D914007BB21900D2
:10EA000028000093FFF7D9FF220001992800FFF7A3
:10EA1000B3FE0222B35EE4009C4217D92022E41A1E
:10EA2000BB000027EB18121B043B191D8D420ED3AF
:10EA30002436009A29003000FFF7A5FE012805D0F2
:10EA4000009B320029002800FFF7EAFEF7BD186896
:10EA50000100E1409040394319600700E4E70022DB
:10EA6000130010B554B2A14202DC5842584110BD07
:10EA70009400045901322343F4E71F234A1119403B
:10EA80001E3B8B409200105818407047020001391D
:10EA900049B2CBB2080605D4013988001018406885
:10EAA0000028F6D0002001335BB283420AD0074928
:10EAB0005918890089580200002904D1581E4001C4
:10EAC000801800B2704749080132F5E7FFFFFF3FA9
:10EAD000002330B55CB2A24200DC30BD9C000D5971
:10EAE00001330551F6E70000F0B50C0000278BB0AC
:10EAF00008220500FFF7ECFFE36A02AA0593236BE7
:10EB000011000693636B10000793A36B049708939F
:10EB1000E36B0397099308230297FFF751FE08233D
:10EB2000060002AA29002800FFF74AFE236B02AA6A
:10EB30000593636B11000693A36B36180793E36B81
:10EB40001000089308230997FFF73AFE08233618A8
:10EB500002AA29002800FFF733FE236A3618029321
:10EB6000636A02AA0393A36A29000493A36B280093
:10EB70000893E36B07970993082306970597FFF718
:10EB80001FFE636AA26B0293A36A06920393E36A71
:10EB9000E26B0493636B361805930893236A07921C
:10EBA000099302AA082329002800FFF709FEE36A57
:10EBB00036180293236B02AA0393636B2900049314
:10EBC000236A28000893A36A0797099308230697E6
:10EBD0000597FFF725FE236B361A0293636B02AA93
:10EBE0000393A36B29000493E36B28000593636AE6
:10EBF00007970893E36A069709930823FFF710FE27
:10EC0000636B361A0293A36B02AA0393E36B29008A
:10EC10000493236A28000593636A08970693A36AFE
:10EC20000793236B09930823FFF7FAFDA36B361AAA
:10EC30000293E36B02AA0393636A29000593A36A14
:10EC400028000693E36A04970793636B0897019380
:10EC500009930823FFF7E4FD341A0F4EBC4210DA83
:10EC60000823320029002800FFF7AAFD2418F7D452
:10EC70000BB0F0BD0823320029002800FFF7D0FDBB
:10EC8000241A002CF6D1082229003000FFF77BFD62
:10EC90000128EFD1ECE7C04610F903000023013A48
:10ECA00052B270B59400002A02DA5842584170BD41
:10ECB00005590E59013A75402B4352B2043CF2E714
:10ECC000002210B58900411804390B1D984200D369
:10ECD00010BD0C68630813430B60E207F4E7000003
:10ECE00070B50368040015000026DB0705D5130086
:10ECF0000A000100FFF764FD060029002000FFF76D
:10ED0000DFFF002E08D0054BED188023AD006419FD
:10ED100022681B061343236070BDC046FFFFFF3F00
:10ED200070B500251E0004AB5D5704002B00FFF7F3
:10ED300047FD002806D12A0021003000FFF723FDFF
:10ED4000012805D02B00320021002000FFF768FDCC
:10ED500070BD70B500251E0004AB5D5704002B008C
:10ED6000FFF75EFD002805D02B00320021002000B7
:10ED7000FFF726FD70BD0000F0B51E00A9B018AB6E
:10ED8000049007911000310006931700FFF77EFEF4
:10ED9000B301181A03B21F20DC170440E4183B4DDE
:10EDA0006411019364B21D4004D52023013D5B42F0
:10EDB0001D430135210008A82DB2FFF7FEFDA40078
:10EDC000002D25DD08AB9C4600232022A4441C0016
:10EDD000B000521B834212D101247300029308AA8F
:10EDE000B300D3180393019B002B49DA06ABA400B0
:10EDF0003200E1580498FFF76BFE29B0F0BDF958D6
:10EE0000A94021436446E150FC580433D440E1E773
:10EE100008AB181932003900FFF75AFEDCE706A8E4
:10EE2000A10009589700C85908A97958411AC91A68
:10EE3000884202D088429B415B4206A84059013279
:10EE40000590C15152B202998A42E8DBE41A63424A
:10EE50005C4108AD31002800FFF732FF721EB3009D
:10EE600092005B595159DB070B4303983100535112
:10EE7000FFF726FF0198E4B2013803B20193B2E72D
:10EE8000012100220D1B1300AD00DCE71F000080F4
:10EE900070B5002405001E0090B014AB1C576846E6
:10EEA0002300FFF7EBFC2300320069462800FFF740
:10EEB00063FF10B070BD30B51C000023050091B099
:10EEC000E3566846AC34FFF7D9FC2368694628004E
:10EED000984711B030BD30B514000022050091B044
:10EEE000A2566846AC34FFF715FD23686946280032
:10EEF000984711B030BDF0B58DB0040015000F007B
:10EF00001C22002105A8FBF783FF032304930023A1
:10EF1000EB562A00390020000393FFF7DCFF039B28
:10EF20002E1D009304AA330021002000FFF711FFDB
:10EF30002B003A0021002000FFF7BDFF2A00039BB1
:10EF400084320093210033002000FFF7E9FE0DB06A
:10EF5000F0BD0000F0B5002697B0049103939E57D2
:10EF60000500310010001400FFF779FD002800D0E3
:10EF700092E0039A049906A8FFF7ADFF039B06AA47
:10EF800029000EA8FFF797FF06A90800039AFFF7CC
:10EF9000A2FF0499039B08002200FFF78CFF039A4D
:10EFA00021002000FFF797FF039B22001F1D3B005D
:10EFB000290028000096FFF7B3FE3B002200210045
:10EFC00020000096FFF7ACFE3B0022002900200045
:10EFD0000096FFF7BEFE039B220029002800FFF7E2
:10EFE0006AFF3B002A00290020000096FFF798FEE8
:10EFF0003B000096220029002800FFF791FE2B68B5
:10F00000DB074BD533003A0029002800FFF7D8FB77
:10F01000310005902800FFF753FE234B059AF318A3
:10F020009B00EB181968D2070A431A60039A29005B
:10F030002000FFF750FF3B000EAA210020000096A1
:10F04000FFF787FE3B000EAA210020000096FFF785
:10F0500080FE0EA908003B0022000096FFF779FE13
:10F06000039B0EAA29002800FFF725FF06AA3B00F4
:10F07000100029000096FFF76CFE320021002800E6
:10F08000FFF726FD320004992000FFF721FD320032
:10F0900006A90498FFF71CFD17B0F0BD3100280049
:10F0A000FFF70EFEC2E7C046FFFFFF3FF0B50025A9
:10F0B00014001E008DB0129B029003915D571F1D1E
:10F0C0003B000200210004A80095FFF742FE04A9BE
:10F0D000129A0800FFF7FFFE0299129B04AA08008B
:10F0E000FFF7E9FE129B04AA21002000FFF7E3FED0
:10F0F0003B00039A310030000095FFF72AFE129A78
:10F10000310004A8FFF7E7FE04A93B00029A0800BB
:10F110000095FFF71EFE04A93B00220008000095A1
:10F12000FFF717FE3B00029A210020000095FFF731
:10F1300010FE0399129B22000800FFF7BCFE3B0063
:10F1400004AA029920000095FFF703FE129B2200FB
:10F1500031003000FFF7AFFE3B00039A3100300072
:10F160000095FFF7F6FD2A0004A92000FFF7B0FC88
:10F170000DB0F0BDF0B516001C0007000D0089B001
:10F180001A0031006846FFF7A6FE23006A463900E0
:10F190003800FFF790FE2300320069466846FFF70B
:10F1A0008AFE23006A4629002800FFF784FE09B082
:10F1B000F0BDF0B50E00A3B0070019003000150037
:10F1C0001C00FFF74CFC002805D021003800FFF799
:10F1D000F4FB23B0F0BD31000126220002A8FFF7A6
:10F1E00077FC220029000AA8FFF772FC210012A870
:10F1F000FFF7E3FB21001AA81296FFF7DEFB2200BF
:10F200000AA902A8FFF7BFFA002805D1220012A917
:10F210003800FFF75DFCDCE7029B0193334209D124
:10F22000210002A8FFF74CFD2200290012A8FFF7D9
:10F2300057FDE4E70A9B0193334207D121000AA856
:10F24000FFF73EFD220029001AA8F0E7230000285E
:10F250001CDD02A90AAA0800FFF7E2FA210002A8B1
:10F26000FFF72EFD22001AA912A8FFF78CFA00283A
:10F2700005DA12A923002A000800FFF7A1FA12A953
:10F2800023001AAA0800FFF7CBFACDE70AA902AAC1
:10F290000800FFF7C5FA21000AA8FFF711FD2200B8
:10F2A00012A91AA8FFF76FFA002805DA1AA9230095
:10F2B0002A000800FFF784FA1AA9230012AA0800FE
:10F2C000FFF7AEFABEE70000004870470CF90300F4
:10F2D000F0B50024EFB007911F2100251F00749B9B
:10F2E000089009921C5702229A5E56AE1F32D3171D
:10F2F0000B409B185B115BB20393013B9B00069391
:10F30000069A26ABD550F93108AB5B189D50955144
:10F310000122749B39009A564EA8FFF72DFA01225C
:10F32000749B30009A56B918FFF726FA21004EA8B0
:10F33000FFF795FB0700A84200D0D6E0210030007F
:10F34000FFF78DFB3D000590002800D0CDE0749BB9
:10F35000039A24334EA918000493FFF714FA059D6D
:10F36000012800D0C1E0039A31000498FFF70BFA9E
:10F37000059D012800D0B8E03100039B049A1EA827
:10F38000FFF717FF069B059A0EAE9A510799749BDB
:10F39000099A3000FFF71CFB039B1EAA0093310063
:10F3A000049B3000FFF774FD039B5EAD00931EAA23
:10F3B000049B4EA916A8FFF76BFD280022000899B0
:10F3C000FFF786FBA300EF180993089BA20099188A
:10F3D00038002200FFF77CFB749B220044331900A5
:10F3E00036A80793FFF774FB079BA20099183EA865
:10F3F0002200FFF76DFB749B2900043336AA1EA878
:10F4000000940693FFF7A5FC749B2A0000933EA985
:10F410003B0036A8FFF74AFE1EA908002300069A03
:10F42000FFF7C7FE1EAA39002800749BFFF7A2FE53
:10F43000059B03990A93079B30000B93089B0D953E
:10F440000C93FFF723FB0399070016A8FFF71EFB99
:10F450003D1C874200DA051CADB26F1E3FB2390079
:10F460003000FFF70AFB06003900701E864116A81F
:10F47000FFF703FB431E9841400006430AABB6006A
:10F48000F6582200310026A8FFF722FBA300F1184E
:10F4900022002EA8FFF71CFB21001EA8FFF78DFA03
:10F4A0000123023D1E932DB2002D21DA1EA9080072
:10F4B0002300069AFFF77DFE1EAA2EA926A8749B9C
:10F4C000FFF758FE039A26A90498FFF75CF9012874
:10F4D00005D026A9039B049A0800FFF7A1F9220092
:10F4E0004EA926A8FFF7DAFB050028006FB0F0BD93
:10F4F000749B1EAAA4331E682EA9749B26A8B0472D
:10F5000029000EA8FFF7B9FA06002900701E8641EF
:10F5100016A8FFF7B2FA431E984140000643B60012
:10F520000AABF658002E25D02200310036A8FFF78E
:10F53000CFFA099B2200F1183EA8FFF7C9FA749B85
:10F540001EAA3EA936A8FFF715FE069B36AA26A9D5
:10F5500046A80094FFF7FDFB749B26AA00933EA9E2
:10F560002EAB36A8FFF7A2FD1EA9749B46AA080081
:10F57000FFF7A1FC013D96E702B471464908490036
:10F58000095C49008E4402BC7047C04603B4714612
:10F59000490840004900095E49008E4403BC704799
:10F5A00003B47146490840004900095A49008E4495
:10F5B00003BC70479140031C90409C46203A934006
:10F5C000194352426346D3401943704730B5002473
:10F5D000944208D0035D651C0C5DA34201D0181B4A
:10F5E00002E02C1CF4E7002030BD002310B593424C
:10F5F00003D0CC5CC4540133F9E710BD0023C25CD6
:10F600000133002AFBD1581E70470000F8B5C046F0
:10F61000F8BC08BC9E467047F8B5C046F8BC08BCAC
:10F620009E46704743000000002C0020982F8A421D
:10F6300091443771CFFBC0B5A5DBB5E95BC2563944
:10F64000F111F159A4823F92D55E1CAB98AA07D85C
:10F65000015B8312BE853124C37D0C55745DBE727F
:10F66000FEB1DE80A706DC9B74F19BC1C1699BE4FF
:10F670008647BEEFC69DC10FCCA10C246F2CE92D8F
:10F68000AA84744ADCA9B05CDA88F97652513E98B3
:10F690006DC631A8C82703B0C77F59BFF30BE0C6BA
:10F6A0004791A7D55163CA0667292914850AB72748
:10F6B00038211B2EFC6D2C4D130D385354730A65E5
:10F6C000BB0A6A762EC9C281852C7292A1E8BFA2BC
:10F6D0004B661AA8708B4BC2A3516CC719E892D124
:10F6E000240699D685350EF470A06A1016C1A419A7
:10F6F000086C371E4C774827B5BCB034B30C1C39A6
:10F700004AAAD84E4FCA9C5BF36F2E68EE828F7464
:10F710006F63A5781478C8840802C78CFAFFBE907E
:10F72000EB6C50A4F7A3F9BEF27871C6482D002007
:10F73000542D002020000000010000000000000007
:10F7400050EADA308883B89F604F15F30000C98E05
:10F750000010020053573130325F4446550000001C
:10F76000011104FC0400000000000000021104FC70
:10F770000400000000000000032104FC0404000059
:10F7800000000000041101FF010000000000000063
:10F79000051102FE0400000000000000061104FC38
:10F7A0000400000000000000071104FC0400000039
:10F7B00000000000081701FF2200000060F80300AD
:10F7C000091001FF0100000008F80300000000001C
:10F7D0000000000000000000011101FF0100000016
:10F7E00000000000021702FE6400000060F7030042
:10F7F000031704FC0400000084F80300000000006C
:10F8000000000000000000000000000001070000F0
:10F8100070000000D8F703000201000001000000A2
:10F82000000000000305000041000000000000008F
:10F83000000000000000000000000000011704FCB0
:10F8400070000000D8F70300021704FCB4000000A9
:10F850000CF80300000000000000000000000000A1
:10F86000010100000100000000000000020500008E
:10F870002100000000000000000000000000000067
:10F880000000000001010000040000000000000072
:10F8900000000000000000000000000016A3A88384
:10F8A000011C9FC78E1801D1EE73712976BFC42E3B
:10F8B000BB3FC9940DABA5A10A86FB2E8DE51B139A
:10F8C000E00E905D6336871E089ADC4804C426EF7C
:10F8D000B4C436ABE324B1B339F9BEFA9CF80300E3
:10F8E00040000000D4330020BDD6030067D60300DB
:10F8F000AFDB030033DC030087DC0300B3D5030078
:10F9000075D5030045DB030000000000082000015E
:10F91000FFFFFFFFFFFFFFFFFFFFFFFF00000000F3
:10F92000000000000000000001000000FFFFFFFFDA
:10F93000512563FCC2CAB9F3849E17A7ADFAE6BC91
:10F94000FFFFFFFFFFFFFFFF00000000FFFFFFFFC3
:10F9500096C298D84539A1F4A033EB2D817D037769
:10F96000F240A463E5E6BCF847422CE1F2D1176B04
:10F97000F551BF376840B6CBCE5E316B5733CE2BD7
:10F98000169E0F7C4AEBE78E9B7F1AFEE242E34F06
:10F990004B60D2273E3CCE3BF6B053CCB0061D6543
:10F9A000BC86987655BDEBB3E7933AAAD835C65ACC
:10F9B00055EF0300F7EE0300E9EA03000000000042
:08F9C00060B3FF7F01000000AD
:10F9C800000000000000000000000000000000002F
:10F9D800000000000000000000000000000000001F
:10F9E80024F60300000000000000000000000000F2
:10F9F80000000000000000000000000000000000FF
:10FA080000000000000000000000000000000000EE
:10FA180000000000000000000000000000000000DE
:10FA2800FFFF01000024F400E9AC0300C1AC0300AF
:04FA380000000000CA
:10FA3C0000100000000C040021E103000000000095
:08FA4C00F5C6030055C50300D7
:020000020000FC
:020000041000EA
:0410140000AC030029
:040000033000DC915C
:00000001FF
